{
  "contractName": "Products",
  "abi": [
    {
      "constant": true,
      "inputs": [
        {
          "name": "Id",
          "type": "uint256"
        }
      ],
      "name": "GetOfferBy",
      "outputs": [
        {
          "name": "",
          "type": "uint256"
        },
        {
          "name": "",
          "type": "string"
        },
        {
          "name": "",
          "type": "address"
        },
        {
          "name": "",
          "type": "string"
        },
        {
          "name": "",
          "type": "string"
        }
      ],
      "payable": false,
      "stateMutability": "view",
      "type": "function"
    },
    {
      "constant": true,
      "inputs": [],
      "name": "GetOffersCount",
      "outputs": [
        {
          "name": "",
          "type": "uint256"
        }
      ],
      "payable": false,
      "stateMutability": "view",
      "type": "function"
    }
  ],
  "bytecode": "0x608060405234801561001057600080fd5b50610345806100206000396000f30060806040526004361061004c576000357c0100000000000000000000000000000000000000000000000000000000900463ffffffff168063a4345b1814610051578063de78b6921461007c575b600080fd5b34801561005d57600080fd5b50610066610234565b6040518082815260200191505060405180910390f35b34801561008857600080fd5b506100a76004803603810190808035906020019092919050505061023d565b60405180868152602001806020018573ffffffffffffffffffffffffffffffffffffffff1673ffffffffffffffffffffffffffffffffffffffff1681526020018060200180602001848103845288818151815260200191508051906020019080838360005b8381101561012757808201518184015260208101905061010c565b50505050905090810190601f1680156101545780820380516001836020036101000a031916815260200191505b50848103835286818151815260200191508051906020019080838360005b8381101561018d578082015181840152602081019050610172565b50505050905090810190601f1680156101ba5780820380516001836020036101000a031916815260200191505b50848103825285818151815260200191508051906020019080838360005b838110156101f35780820151818401526020810190506101d8565b50505050905090810190601f1680156102205780820380516001836020036101000a031916815260200191505b509850505050505050505060405180910390f35b60006002905090565b600060606000606080600173ce67e2ab70671e5d0b8499c07e2e6cdb6f75ed128191506040805190810160405280600b81526020017f70726f647563744e616d65000000000000000000000000000000000000000000815250908090506040805190810160405280600981526020017f312e31302e3230313800000000000000000000000000000000000000000000008152506040805190810160405280600a81526020017f33302e31302e323031380000000000000000000000000000000000000000000081525094509450945094509450919395909294505600a165627a7a723058201da19a6ae9ce69a2e3fa704766a7d9222c377c1589b01e23b346f67ffc424e7f0029",
  "source": "//solium-disable linebreak-style\r\n//solium-disable max-len\r\n\r\npragma solidity ^0.4.4;\r\n\r\nimport \"./Product.sol\";\r\n\r\n\r\ncontract Products{\r\n  \r\n    function GetOfferBy(uint Id) public view returns (uint,string,address,string,string){\r\n        return (1,\r\n                \"productName\",\r\n                0xce67e2ab70671e5d0b8499c07e2e6cdb6f75ed12,\"1.10.2018\",\"30.10.2018\");\r\n    }\r\n\r\n    function GetOffersCount() public view returns (uint){\r\n        return 2;\r\n    }\r\n}",
  "sourcePath": "C:\\Users\\spadmin\\Desktop\\hackathon2018\\BlackForestHackathon_2018\\ShareTicketWithWebApp\\contracts\\Products.sol",
  "compiler": {
    "name": "solc",
    "version": "0.4.24+commit.e67f0147.Emscripten.clang"
  },
  "schemaVersion": "2.0.1",
  "updatedAt": "2018-10-13T14:34:05.557Z"
}