{
  "contractName": "ShareTicket",
  "abi": [
    {
      "inputs": [],
      "payable": false,
      "stateMutability": "nonpayable",
      "type": "constructor"
    },
    {
      "constant": false,
      "inputs": [
        {
          "name": "TicketOwner",
          "type": "address"
        },
        {
          "name": "TicketName",
          "type": "string"
        },
        {
          "name": "TickeTimeStampSarting",
          "type": "uint256"
        },
        {
          "name": "TickeTimeStampEnding",
          "type": "uint256"
        },
        {
          "name": "TickeTimeStampReturn",
          "type": "uint256"
        }
      ],
      "name": "AddNewTicket",
      "outputs": [],
      "payable": false,
      "stateMutability": "nonpayable",
      "type": "function"
    },
    {
      "constant": false,
      "inputs": [
        {
          "name": "TicketId",
          "type": "uint256"
        },
        {
          "name": "TicketUserCurrentUser",
          "type": "address"
        },
        {
          "name": "TicketUserTimestampPassed",
          "type": "uint256"
        },
        {
          "name": "GeoLocationLatPassed",
          "type": "uint256"
        },
        {
          "name": "GeoLocationLongPassed",
          "type": "uint256"
        }
      ],
      "name": "PassOnTicket",
      "outputs": [],
      "payable": false,
      "stateMutability": "nonpayable",
      "type": "function"
    },
    {
      "constant": true,
      "inputs": [
        {
          "name": "TicketId",
          "type": "uint256"
        }
      ],
      "name": "GetTicketOwner",
      "outputs": [
        {
          "name": "",
          "type": "address"
        }
      ],
      "payable": false,
      "stateMutability": "view",
      "type": "function"
    },
    {
      "constant": true,
      "inputs": [],
      "name": "GetTicketCount",
      "outputs": [
        {
          "name": "",
          "type": "uint256"
        }
      ],
      "payable": false,
      "stateMutability": "view",
      "type": "function"
    },
    {
      "constant": true,
      "inputs": [
        {
          "name": "TicketId",
          "type": "uint256"
        }
      ],
      "name": "GetTicketName",
      "outputs": [
        {
          "name": "",
          "type": "string"
        }
      ],
      "payable": false,
      "stateMutability": "view",
      "type": "function"
    },
    {
      "constant": true,
      "inputs": [
        {
          "name": "TicketId",
          "type": "uint256"
        }
      ],
      "name": "GetTicketDatesOfValidity",
      "outputs": [
        {
          "name": "",
          "type": "uint256"
        },
        {
          "name": "",
          "type": "uint256"
        }
      ],
      "payable": false,
      "stateMutability": "view",
      "type": "function"
    },
    {
      "constant": true,
      "inputs": [
        {
          "name": "TicketId",
          "type": "uint256"
        }
      ],
      "name": "GetTicketDateOfReturn",
      "outputs": [
        {
          "name": "",
          "type": "uint256"
        }
      ],
      "payable": false,
      "stateMutability": "view",
      "type": "function"
    },
    {
      "constant": true,
      "inputs": [
        {
          "name": "TicketId",
          "type": "uint256"
        }
      ],
      "name": "GetTicketCurrentUser",
      "outputs": [
        {
          "name": "",
          "type": "address"
        }
      ],
      "payable": false,
      "stateMutability": "view",
      "type": "function"
    },
    {
      "constant": true,
      "inputs": [
        {
          "name": "TicketId",
          "type": "uint256"
        }
      ],
      "name": "GetTicketLastGeoLocation",
      "outputs": [
        {
          "name": "",
          "type": "uint256"
        },
        {
          "name": "",
          "type": "uint256"
        }
      ],
      "payable": false,
      "stateMutability": "view",
      "type": "function"
    }
  ],
  "bytecode": "0x60806040523480156200001157600080fd5b506200008573ce67e2ab70671e5d0b8499c07e2e6cdb6f75ed126040805190810160405280601781526020017f4b5656204b61727465203220576162656e204d6f6e6174000000000000000000815250635bb1f2ae635bd97fae635bd2e82e620000fe640100000000026401000000009004565b620000f8731ab79ce0e17faa271990179e85706bf5b2597a166040805190810160405280601481526020017f52564620526567696f4b61727465204d6f6e6174000000000000000000000000815250635bb1f2ae635bd97fae635bc467ae620000fe640100000000026401000000009004565b62000351565b6200010862000255565b85816000019073ffffffffffffffffffffffffffffffffffffffff16908173ffffffffffffffffffffffffffffffffffffffff16815250508481602001819052508381604001818152505082816060018181525050818160800181815250506001600254908060018154018082558091505090600182039060005260206000200160009091929091909150555080600080600254815260200190815260200160002060008201518160000160006101000a81548173ffffffffffffffffffffffffffffffffffffffff021916908373ffffffffffffffffffffffffffffffffffffffff16021790555060208201518160010190805190602001906200020f929190620002a2565b5060408201518160020155606082015181600301556080820151816004015560a08201518160060155905050600260008154809291906001019190505550505050505050565b60c060405190810160405280600073ffffffffffffffffffffffffffffffffffffffff16815260200160608152602001600081526020016000815260200160008152602001600081525090565b828054600181600116156101000203166002900490600052602060002090601f016020900481019282601f10620002e557805160ff191683800117855562000316565b8280016001018555821562000316579182015b8281111562000315578251825591602001919060010190620002f8565b5b50905062000325919062000329565b5090565b6200034e91905b808211156200034a57600081600090555060010162000330565b5090565b90565b6112ed80620003616000396000f300608060405260043610610099576000357c0100000000000000000000000000000000000000000000000000000000900463ffffffff16806338aa2f7b1461009e5780633df4e5f01461010b57806362c450be146101535780637dab66d81461019b57806383ea932214610206578063936dc78d146102735780639c52d0b61461029e578063d6d5706214610344578063e2f6c59a146103eb575b600080fd5b3480156100aa57600080fd5b506100c96004803603810190808035906020019092919050505061042c565b604051808273ffffffffffffffffffffffffffffffffffffffff1673ffffffffffffffffffffffffffffffffffffffff16815260200191505060405180910390f35b34801561011757600080fd5b50610136600480360381019080803590602001909291905050506105fa565b604051808381526020018281526020019250505060405180910390f35b34801561015f57600080fd5b5061017e6004803603810190808035906020019092919050505061070a565b604051808381526020018281526020019250505060405180910390f35b3480156101a757600080fd5b5061020460048036038101908080359060200190929190803573ffffffffffffffffffffffffffffffffffffffff1690602001909291908035906020019092919080359060200190929190803590602001909291905050506108fe565b005b34801561021257600080fd5b5061023160048036038101908080359060200190929190505050610c83565b604051808273ffffffffffffffffffffffffffffffffffffffff1673ffffffffffffffffffffffffffffffffffffffff16815260200191505060405180910390f35b34801561027f57600080fd5b50610288610d99565b6040518082815260200191505060405180910390f35b3480156102aa57600080fd5b506102c960048036038101908080359060200190929190505050610da3565b6040518080602001828103825283818151815260200191508051906020019080838360005b838110156103095780820151818401526020810190506102ee565b50505050905090810190601f1680156103365780820380516001836020036101000a031916815260200191505b509250505060405180910390f35b34801561035057600080fd5b506103e9600480360381019080803573ffffffffffffffffffffffffffffffffffffffff169060200190929190803590602001908201803590602001908080601f0160208091040260200160405190810160405280939291908181526020018383808284378201915050505050509192919290803590602001909291908035906020019092919080359060200190929190505050610f32565b005b3480156103f757600080fd5b5061041660048036038101908080359060200190929190505050611085565b6040518082815260200191505060405180910390f35b60008073ffffffffffffffffffffffffffffffffffffffff1660008084815260200190815260200160002060000160009054906101000a900473ffffffffffffffffffffffffffffffffffffffff1673ffffffffffffffffffffffffffffffffffffffff161415610505576040517f08c379a00000000000000000000000000000000000000000000000000000000081526004018080602001828103825260138152602001807f6e6f205469636b6574207761732061646465640000000000000000000000000081525060200191505060405180910390fd5b6000806000848152602001908152602001600020600601541415610591576040517f08c379a000000000000000000000000000000000000000000000000000000000815260040180806020018281038252600e8152602001807f6e6f205469636b6574207573657200000000000000000000000000000000000081525060200191505060405180910390fd5b600080838152602001908152602001600020600501600060016000808681526020019081526020016000206006015403815260200190815260200160002060000160009054906101000a900473ffffffffffffffffffffffffffffffffffffffff169050919050565b600080600073ffffffffffffffffffffffffffffffffffffffff1660008085815260200190815260200160002060000160009054906101000a900473ffffffffffffffffffffffffffffffffffffffff1673ffffffffffffffffffffffffffffffffffffffff1614156106d5576040517f08c379a00000000000000000000000000000000000000000000000000000000081526004018080602001828103825260138152602001807f6e6f205469636b6574207761732061646465640000000000000000000000000081525060200191505060405180910390fd5b600080848152602001908152602001600020600201546000808581526020019081526020016000206003015491509150915091565b600080600073ffffffffffffffffffffffffffffffffffffffff1660008085815260200190815260200160002060000160009054906101000a900473ffffffffffffffffffffffffffffffffffffffff1673ffffffffffffffffffffffffffffffffffffffff1614156107e5576040517f08c379a00000000000000000000000000000000000000000000000000000000081526004018080602001828103825260138152602001807f6e6f205469636b6574207761732061646465640000000000000000000000000081525060200191505060405180910390fd5b6000806000858152602001908152602001600020600601541415610871576040517f08c379a000000000000000000000000000000000000000000000000000000000815260040180806020018281038252600e8152602001807f6e6f205469636b6574207573657200000000000000000000000000000000000081525060200191505060405180910390fd5b60008084815260200190815260200160002060050160006001600080878152602001908152602001600020600601540381526020019081526020016000206003015460008085815260200190815260200160002060050160006001600080888152602001908152602001600020600601540381526020019081526020016000206004015491509150915091565b61090661117b565b600073ffffffffffffffffffffffffffffffffffffffff1660008088815260200190815260200160002060000160009054906101000a900473ffffffffffffffffffffffffffffffffffffffff1673ffffffffffffffffffffffffffffffffffffffff1614156109de576040517f08c379a00000000000000000000000000000000000000000000000000000000081526004018080602001828103825260138152602001807f6e6f205469636b6574207761732061646465640000000000000000000000000081525060200191505060405180910390fd5b6000806000888152602001908152602001600020600601541115610acf5783600080888152602001908152602001600020600501600060016000808b8152602001908152602001600020600601540381526020019081526020016000206002018190555082600080888152602001908152602001600020600501600060016000808b8152602001908152602001600020600601540381526020019081526020016000206005018190555081600080888152602001908152602001600020600501600060016000808b815260200190815260200160002060060154038152602001908152602001600020600601819055505b8473ffffffffffffffffffffffffffffffffffffffff1660008088815260200190815260200160002060000160009054906101000a900473ffffffffffffffffffffffffffffffffffffffff1673ffffffffffffffffffffffffffffffffffffffff161415610b3d57610c7b565b84816000019073ffffffffffffffffffffffffffffffffffffffff16908173ffffffffffffffffffffffffffffffffffffffff16815250508381602001818152505082816060018181525050818160800181815250508060008088815260200190815260200160002060050160008060008a815260200190815260200160002060060154815260200190815260200160002060008201518160000160006101000a81548173ffffffffffffffffffffffffffffffffffffffff021916908373ffffffffffffffffffffffffffffffffffffffff1602179055506020820151816001015560408201518160020155606082015181600301556080820151816004015560a0820151816005015560c08201518160060155905050600080878152602001908152602001600020600601600081548092919060010191905055505b505050505050565b60008073ffffffffffffffffffffffffffffffffffffffff1660008084815260200190815260200160002060000160009054906101000a900473ffffffffffffffffffffffffffffffffffffffff1673ffffffffffffffffffffffffffffffffffffffff161415610d5c576040517f08c379a00000000000000000000000000000000000000000000000000000000081526004018080602001828103825260138152602001807f6e6f205469636b6574207761732061646465640000000000000000000000000081525060200191505060405180910390fd5b60008083815260200190815260200160002060000160009054906101000a900473ffffffffffffffffffffffffffffffffffffffff169050919050565b6000600254905090565b6060600073ffffffffffffffffffffffffffffffffffffffff1660008084815260200190815260200160002060000160009054906101000a900473ffffffffffffffffffffffffffffffffffffffff1673ffffffffffffffffffffffffffffffffffffffff161415610e7d576040517f08c379a00000000000000000000000000000000000000000000000000000000081526004018080602001828103825260138152602001807f6e6f205469636b6574207761732061646465640000000000000000000000000081525060200191505060405180910390fd5b6000808381526020019081526020016000206001018054600181600116156101000203166002900480601f016020809104026020016040519081016040528092919081815260200182805460018160011615610100020316600290048015610f265780601f10610efb57610100808354040283529160200191610f26565b820191906000526020600020905b815481529060010190602001808311610f0957829003601f168201915b50505050509050919050565b610f3a6111cf565b85816000019073ffffffffffffffffffffffffffffffffffffffff16908173ffffffffffffffffffffffffffffffffffffffff16815250508481602001819052508381604001818152505082816060018181525050818160800181815250506001600254908060018154018082558091505090600182039060005260206000200160009091929091909150555080600080600254815260200190815260200160002060008201518160000160006101000a81548173ffffffffffffffffffffffffffffffffffffffff021916908373ffffffffffffffffffffffffffffffffffffffff160217905550602082015181600101908051906020019061103f92919061121c565b5060408201518160020155606082015181600301556080820151816004015560a08201518160060155905050600260008154809291906001019190505550505050505050565b60008073ffffffffffffffffffffffffffffffffffffffff1660008084815260200190815260200160002060000160009054906101000a900473ffffffffffffffffffffffffffffffffffffffff1673ffffffffffffffffffffffffffffffffffffffff16141561115e576040517f08c379a00000000000000000000000000000000000000000000000000000000081526004018080602001828103825260138152602001807f6e6f205469636b6574207761732061646465640000000000000000000000000081525060200191505060405180910390fd5b600080838152602001908152602001600020600401549050919050565b60e060405190810160405280600073ffffffffffffffffffffffffffffffffffffffff1681526020016000815260200160008152602001600081526020016000815260200160008152602001600081525090565b60c060405190810160405280600073ffffffffffffffffffffffffffffffffffffffff16815260200160608152602001600081526020016000815260200160008152602001600081525090565b828054600181600116156101000203166002900490600052602060002090601f016020900481019282601f1061125d57805160ff191683800117855561128b565b8280016001018555821561128b579182015b8281111561128a57825182559160200191906001019061126f565b5b509050611298919061129c565b5090565b6112be91905b808211156112ba5760008160009055506001016112a2565b5090565b905600a165627a7a72305820efc42bd9665e31ceab5f7a8ef77282b8153bc24337053f07315efe2c727de6c40029",
  "source": "//solium-disable linebreak-style\r\n//solium-disable max-len\r\n\r\npragma solidity ^0.4.4;\r\n\r\ncontract ShareTicket{\r\n\r\n    struct TicketUser{\r\n        address TicketUserCurrentUser;\t\t\r\n        uint TicketUserTimestampRecived;\r\n        uint TicketUserTimestampPassed;\r\n        uint GeoLocationLatRecived;\r\n        uint GeoLocationLongRecived;    \r\n        uint GeoLocationLatPassed;\r\n        uint GeoLocationLongPassed;    \r\n    }\r\n\r\n    struct Ticket{\t\r\n        address TicketOwner;\t\r\n        string TicketName;\r\n        uint TickeTimeStampSarting;\r\n        uint TickeTimeStampEnding;\r\n        uint TickeTimeStampReturn;\r\n        mapping (uint => TicketUser) TicketUsers;\r\n        uint TicketUserCount;\r\n    }\r\n\r\n    mapping (uint => Ticket) private m_Tickets;  \r\n    uint[] private m_TicketIds ; \r\n    uint private m_TicketCount ;\r\n\t\r\n    constructor() public{        \r\n        \r\n        //remove * comment for dummy data\r\n         \r\n        // cretat dummy entrys for intial data\r\n        AddNewTicket(0xce67e2ab70671e5d0b8499c07e2e6cdb6f75ed12,\"KVV Karte 2 Waben Monat\",1538388654,1540980654,1540548654);\r\n        AddNewTicket(0x1ab79ce0e17faa271990179e85706bf5b2597a16,\"RVF RegioKarte Monat\",1538388654,1540980654,1539598254);\r\n        \r\n    }\r\n\r\n    function AddNewTicket(address TicketOwner, string TicketName, uint TickeTimeStampSarting, uint TickeTimeStampEnding,uint TickeTimeStampReturn) public{\r\n          \r\n        // init new ticket\r\n        Ticket memory newTicket;\r\n\r\n        newTicket.TicketOwner = TicketOwner;\r\n        newTicket.TicketName = TicketName;\r\n        newTicket.TickeTimeStampSarting = TickeTimeStampSarting;\r\n        newTicket.TickeTimeStampEnding = TickeTimeStampEnding;\r\n        newTicket.TickeTimeStampReturn = TickeTimeStampReturn;\r\n\r\n        // Store new ticket       \r\n        m_TicketIds.push(m_TicketCount);\r\n        m_Tickets[m_TicketCount] = newTicket;\r\n        m_TicketCount++;\r\n    }\r\n\r\n    function PassOnTicket(uint TicketId, address TicketUserCurrentUser, uint TicketUserTimestampPassed, uint GeoLocationLatPassed, uint GeoLocationLongPassed) public{   \r\n\r\n        if(m_Tickets[TicketId].TicketOwner == address(0))\r\n        {\r\n            revert(\"no Ticket was added\");\r\n        }\r\n\r\n        TicketUser memory newTicketUser;\r\n        \r\n        // billing current ticket user\r\n        if(m_Tickets[TicketId].TicketUserCount > 0)\r\n        {\r\n            m_Tickets[TicketId].TicketUsers[m_Tickets[TicketId].TicketUserCount-1].TicketUserTimestampPassed = TicketUserTimestampPassed;\r\n            m_Tickets[TicketId].TicketUsers[m_Tickets[TicketId].TicketUserCount-1].GeoLocationLatPassed = GeoLocationLatPassed;\r\n            m_Tickets[TicketId].TicketUsers[m_Tickets[TicketId].TicketUserCount-1].GeoLocationLongPassed = GeoLocationLongPassed;\r\n\r\n            // add billing\r\n        }\r\n\r\n        // check if owner got it back\r\n        if(m_Tickets[TicketId].TicketOwner == TicketUserCurrentUser)\r\n        {\r\n            // add destruct code\r\n\r\n            return;\r\n        }\r\n\r\n        // pass on ticket\r\n        newTicketUser.TicketUserCurrentUser = TicketUserCurrentUser;\r\n        newTicketUser.TicketUserTimestampRecived = TicketUserTimestampPassed;\r\n        newTicketUser.GeoLocationLatRecived = GeoLocationLatPassed;\r\n        newTicketUser.GeoLocationLongRecived = GeoLocationLongPassed;  \r\n\r\n        // store new user        \r\n        m_Tickets[TicketId].TicketUsers[m_Tickets[TicketId].TicketUserCount] = newTicketUser;     \r\n        m_Tickets[TicketId].TicketUserCount++;\r\n    }\r\n\r\n    function GetTicketOwner(uint TicketId) public view returns(address){\r\n\r\n        if(m_Tickets[TicketId].TicketOwner == address(0))\r\n        {\r\n            revert(\"no Ticket was added\");\r\n        }\r\n\r\n        return m_Tickets[TicketId].TicketOwner;\r\n    }\r\n\r\n\t\r\n    function GetTicketCount() public view returns(uint){\r\n\r\n       return m_TicketCount;\r\n    }\r\n\r\n    function GetTicketName(uint TicketId) public view returns(string){\r\n\r\n        if(m_Tickets[TicketId].TicketOwner == address(0))\r\n        {\r\n            revert(\"no Ticket was added\");\r\n        }\r\n\r\n        return m_Tickets[TicketId].TicketName;\r\n    }\r\n\r\n    function GetTicketDatesOfValidity(uint TicketId) public view returns(uint,uint){\r\n\r\n        if(m_Tickets[TicketId].TicketOwner == address(0))\r\n        {\r\n            revert(\"no Ticket was added\");\r\n        }\r\n\r\n        return (m_Tickets[TicketId].TickeTimeStampSarting,m_Tickets[TicketId].TickeTimeStampEnding);\r\n    }\r\n\r\n    function GetTicketDateOfReturn(uint TicketId) public view returns(uint){\r\n\r\n        if(m_Tickets[TicketId].TicketOwner == address(0))\r\n        {\r\n            revert(\"no Ticket was added\");\r\n        }\t\t\r\n\r\n        return m_Tickets[TicketId].TickeTimeStampReturn;\r\n    }\r\n\r\n    function GetTicketCurrentUser(uint TicketId) public view returns(address){\r\n\r\n        if(m_Tickets[TicketId].TicketOwner == address(0))\r\n        {\r\n            revert(\"no Ticket was added\");\r\n        }\r\n\r\n        if(m_Tickets[TicketId].TicketUserCount == 0)\r\n        {\r\n            revert(\"no Ticket user\");\r\n        }\r\n\r\n        return m_Tickets[TicketId].TicketUsers[m_Tickets[TicketId].TicketUserCount-1].TicketUserCurrentUser;\r\n    }\r\n\r\n    function GetTicketLastGeoLocation(uint TicketId) public view returns(uint,uint){\r\n\r\n        if(m_Tickets[TicketId].TicketOwner == address(0))\r\n        {\r\n            revert(\"no Ticket was added\");\r\n        }\r\n\r\n        if(m_Tickets[TicketId].TicketUserCount == 0)\r\n        {\r\n            revert(\"no Ticket user\");\r\n        }\r\n\r\n        return (m_Tickets[TicketId].TicketUsers[m_Tickets[TicketId].TicketUserCount-1].GeoLocationLatRecived, m_Tickets[TicketId].TicketUsers[m_Tickets[TicketId].TicketUserCount-1].GeoLocationLongRecived);\r\n    }\r\n        \r\n\t\r\n\r\n}",
  "sourcePath": "C:\\Repos\\hackathon2018\\BlackForestHackathon_2018\\ShareTicketWithWebApp\\contracts\\ShareTicket.sol",
  "compiler": {
    "name": "solc",
    "version": "0.4.24+commit.e67f0147.Emscripten.clang"
  },
  "schemaVersion": "2.0.1",
  "updatedAt": "2018-10-12T13:00:30.654Z"
}