{
  "contractName": "ShareTicket",
  "abi": [
    {
      "inputs": [],
      "payable": false,
      "stateMutability": "nonpayable",
      "type": "constructor"
    },
    {
      "constant": false,
      "inputs": [
        {
          "name": "TicketOwner",
          "type": "address"
        },
        {
          "name": "TicketName",
          "type": "string"
        },
        {
          "name": "TicketTimeStampSarting",
          "type": "uint256"
        },
        {
          "name": "TicketTimestampEnding",
          "type": "uint256"
        },
        {
          "name": "TicketTimeStampReturn",
          "type": "uint256"
        }
      ],
      "name": "AddNewTicket",
      "outputs": [],
      "payable": false,
      "stateMutability": "nonpayable",
      "type": "function"
    },
    {
      "constant": false,
      "inputs": [
        {
          "name": "TicketId",
          "type": "uint256"
        },
        {
          "name": "TicketUserCurrentUser",
          "type": "address"
        },
        {
          "name": "TicketUserTimestampPassed",
          "type": "uint256"
        },
        {
          "name": "GeoLocationLatPassed",
          "type": "uint256"
        },
        {
          "name": "GeoLocationLongPassed",
          "type": "uint256"
        }
      ],
      "name": "PassOnTicket",
      "outputs": [],
      "payable": false,
      "stateMutability": "nonpayable",
      "type": "function"
    },
    {
      "constant": true,
      "inputs": [
        {
          "name": "TicketId",
          "type": "uint256"
        }
      ],
      "name": "GetTicketOwner",
      "outputs": [
        {
          "name": "",
          "type": "address"
        }
      ],
      "payable": false,
      "stateMutability": "view",
      "type": "function"
    },
    {
      "constant": true,
      "inputs": [
        {
          "name": "TicketId",
          "type": "uint256"
        }
      ],
      "name": "GetTicketName",
      "outputs": [
        {
          "name": "",
          "type": "string"
        }
      ],
      "payable": false,
      "stateMutability": "view",
      "type": "function"
    },
    {
      "constant": true,
      "inputs": [
        {
          "name": "TicketId",
          "type": "uint256"
        }
      ],
      "name": "GetTicketDatesOfValidity",
      "outputs": [
        {
          "name": "",
          "type": "uint256"
        },
        {
          "name": "",
          "type": "uint256"
        }
      ],
      "payable": false,
      "stateMutability": "view",
      "type": "function"
    },
    {
      "constant": true,
      "inputs": [
        {
          "name": "TicketId",
          "type": "uint256"
        }
      ],
      "name": "GetTicketDateOfReturn",
      "outputs": [
        {
          "name": "",
          "type": "uint256"
        }
      ],
      "payable": false,
      "stateMutability": "view",
      "type": "function"
    },
    {
      "constant": true,
      "inputs": [
        {
          "name": "TicketId",
          "type": "uint256"
        }
      ],
      "name": "GetTicketCurrentUser",
      "outputs": [
        {
          "name": "",
          "type": "address"
        }
      ],
      "payable": false,
      "stateMutability": "view",
      "type": "function"
    },
    {
      "constant": true,
      "inputs": [
        {
          "name": "TicketId",
          "type": "uint256"
        }
      ],
      "name": "GetTicketLastGeoLocation",
      "outputs": [
        {
          "name": "",
          "type": "uint256"
        },
        {
          "name": "",
          "type": "uint256"
        }
      ],
      "payable": false,
      "stateMutability": "view",
      "type": "function"
    }
  ],
  "bytecode": "0x608060405234801561001057600080fd5b506112ad806100206000396000f30060806040526004361061008e576000357c0100000000000000000000000000000000000000000000000000000000900463ffffffff16806338aa2f7b146100935780633df4e5f01461010057806362c450be146101485780637dab66d81461019057806383ea9322146101fb5780639c52d0b614610268578063d6d570621461030e578063e2f6c59a146103b5575b600080fd5b34801561009f57600080fd5b506100be600480360381019080803590602001909291905050506103f6565b604051808273ffffffffffffffffffffffffffffffffffffffff1673ffffffffffffffffffffffffffffffffffffffff16815260200191505060405180910390f35b34801561010c57600080fd5b5061012b600480360381019080803590602001909291905050506105c4565b604051808381526020018281526020019250505060405180910390f35b34801561015457600080fd5b50610173600480360381019080803590602001909291905050506106d4565b604051808381526020018281526020019250505060405180910390f35b34801561019c57600080fd5b506101f960048036038101908080359060200190929190803573ffffffffffffffffffffffffffffffffffffffff1690602001909291908035906020019092919080359060200190929190803590602001909291905050506108c8565b005b34801561020757600080fd5b5061022660048036038101908080359060200190929190505050610c4d565b604051808273ffffffffffffffffffffffffffffffffffffffff1673ffffffffffffffffffffffffffffffffffffffff16815260200191505060405180910390f35b34801561027457600080fd5b5061029360048036038101908080359060200190929190505050610d63565b6040518080602001828103825283818151815260200191508051906020019080838360005b838110156102d35780820151818401526020810190506102b8565b50505050905090810190601f1680156103005780820380516001836020036101000a031916815260200191505b509250505060405180910390f35b34801561031a57600080fd5b506103b3600480360381019080803573ffffffffffffffffffffffffffffffffffffffff169060200190929190803590602001908201803590602001908080601f0160208091040260200160405190810160405280939291908181526020018383808284378201915050505050509192919290803590602001909291908035906020019092919080359060200190929190505050610ef2565b005b3480156103c157600080fd5b506103e060048036038101908080359060200190929190505050611045565b6040518082815260200191505060405180910390f35b60008073ffffffffffffffffffffffffffffffffffffffff1660008084815260200190815260200160002060000160009054906101000a900473ffffffffffffffffffffffffffffffffffffffff1673ffffffffffffffffffffffffffffffffffffffff1614156104cf576040517f08c379a00000000000000000000000000000000000000000000000000000000081526004018080602001828103825260138152602001807f6e6f205469636b6574207761732061646465640000000000000000000000000081525060200191505060405180910390fd5b600080600084815260200190815260200160002060060154141561055b576040517f08c379a000000000000000000000000000000000000000000000000000000000815260040180806020018281038252600e8152602001807f6e6f205469636b6574207573657200000000000000000000000000000000000081525060200191505060405180910390fd5b600080838152602001908152602001600020600501600060016000808681526020019081526020016000206006015403815260200190815260200160002060000160009054906101000a900473ffffffffffffffffffffffffffffffffffffffff169050919050565b600080600073ffffffffffffffffffffffffffffffffffffffff1660008085815260200190815260200160002060000160009054906101000a900473ffffffffffffffffffffffffffffffffffffffff1673ffffffffffffffffffffffffffffffffffffffff16141561069f576040517f08c379a00000000000000000000000000000000000000000000000000000000081526004018080602001828103825260138152602001807f6e6f205469636b6574207761732061646465640000000000000000000000000081525060200191505060405180910390fd5b600080848152602001908152602001600020600201546000808581526020019081526020016000206002015491509150915091565b600080600073ffffffffffffffffffffffffffffffffffffffff1660008085815260200190815260200160002060000160009054906101000a900473ffffffffffffffffffffffffffffffffffffffff1673ffffffffffffffffffffffffffffffffffffffff1614156107af576040517f08c379a00000000000000000000000000000000000000000000000000000000081526004018080602001828103825260138152602001807f6e6f205469636b6574207761732061646465640000000000000000000000000081525060200191505060405180910390fd5b600080600085815260200190815260200160002060060154141561083b576040517f08c379a000000000000000000000000000000000000000000000000000000000815260040180806020018281038252600e8152602001807f6e6f205469636b6574207573657200000000000000000000000000000000000081525060200191505060405180910390fd5b60008084815260200190815260200160002060050160006001600080878152602001908152602001600020600601540381526020019081526020016000206003015460008085815260200190815260200160002060050160006001600080888152602001908152602001600020600601540381526020019081526020016000206004015491509150915091565b6108d061113b565b600073ffffffffffffffffffffffffffffffffffffffff1660008088815260200190815260200160002060000160009054906101000a900473ffffffffffffffffffffffffffffffffffffffff1673ffffffffffffffffffffffffffffffffffffffff1614156109a8576040517f08c379a00000000000000000000000000000000000000000000000000000000081526004018080602001828103825260138152602001807f6e6f205469636b6574207761732061646465640000000000000000000000000081525060200191505060405180910390fd5b6000806000888152602001908152602001600020600601541115610a995783600080888152602001908152602001600020600501600060016000808b8152602001908152602001600020600601540381526020019081526020016000206002018190555082600080888152602001908152602001600020600501600060016000808b8152602001908152602001600020600601540381526020019081526020016000206005018190555081600080888152602001908152602001600020600501600060016000808b815260200190815260200160002060060154038152602001908152602001600020600601819055505b8473ffffffffffffffffffffffffffffffffffffffff1660008088815260200190815260200160002060000160009054906101000a900473ffffffffffffffffffffffffffffffffffffffff1673ffffffffffffffffffffffffffffffffffffffff161415610b0757610c45565b84816000019073ffffffffffffffffffffffffffffffffffffffff16908173ffffffffffffffffffffffffffffffffffffffff16815250508381602001818152505082816060018181525050818160800181815250508060008088815260200190815260200160002060050160008060008a815260200190815260200160002060060154815260200190815260200160002060008201518160000160006101000a81548173ffffffffffffffffffffffffffffffffffffffff021916908373ffffffffffffffffffffffffffffffffffffffff1602179055506020820151816001015560408201518160020155606082015181600301556080820151816004015560a0820151816005015560c08201518160060155905050600080878152602001908152602001600020600601600081548092919060010191905055505b505050505050565b60008073ffffffffffffffffffffffffffffffffffffffff1660008084815260200190815260200160002060000160009054906101000a900473ffffffffffffffffffffffffffffffffffffffff1673ffffffffffffffffffffffffffffffffffffffff161415610d26576040517f08c379a00000000000000000000000000000000000000000000000000000000081526004018080602001828103825260138152602001807f6e6f205469636b6574207761732061646465640000000000000000000000000081525060200191505060405180910390fd5b60008083815260200190815260200160002060000160009054906101000a900473ffffffffffffffffffffffffffffffffffffffff169050919050565b6060600073ffffffffffffffffffffffffffffffffffffffff1660008084815260200190815260200160002060000160009054906101000a900473ffffffffffffffffffffffffffffffffffffffff1673ffffffffffffffffffffffffffffffffffffffff161415610e3d576040517f08c379a00000000000000000000000000000000000000000000000000000000081526004018080602001828103825260138152602001807f6e6f205469636b6574207761732061646465640000000000000000000000000081525060200191505060405180910390fd5b6000808381526020019081526020016000206001018054600181600116156101000203166002900480601f016020809104026020016040519081016040528092919081815260200182805460018160011615610100020316600290048015610ee65780601f10610ebb57610100808354040283529160200191610ee6565b820191906000526020600020905b815481529060010190602001808311610ec957829003601f168201915b50505050509050919050565b610efa61118f565b85816000019073ffffffffffffffffffffffffffffffffffffffff16908173ffffffffffffffffffffffffffffffffffffffff16815250508481602001819052508381604001818152505082816060018181525050818160800181815250506001600254908060018154018082558091505090600182039060005260206000200160009091929091909150555080600080600254815260200190815260200160002060008201518160000160006101000a81548173ffffffffffffffffffffffffffffffffffffffff021916908373ffffffffffffffffffffffffffffffffffffffff1602179055506020820151816001019080519060200190610fff9291906111dc565b5060408201518160020155606082015181600301556080820151816004015560a08201518160060155905050600260008154809291906001019190505550505050505050565b60008073ffffffffffffffffffffffffffffffffffffffff1660008084815260200190815260200160002060000160009054906101000a900473ffffffffffffffffffffffffffffffffffffffff1673ffffffffffffffffffffffffffffffffffffffff16141561111e576040517f08c379a00000000000000000000000000000000000000000000000000000000081526004018080602001828103825260138152602001807f6e6f205469636b6574207761732061646465640000000000000000000000000081525060200191505060405180910390fd5b600080838152602001908152602001600020600401549050919050565b60e060405190810160405280600073ffffffffffffffffffffffffffffffffffffffff1681526020016000815260200160008152602001600081526020016000815260200160008152602001600081525090565b60c060405190810160405280600073ffffffffffffffffffffffffffffffffffffffff16815260200160608152602001600081526020016000815260200160008152602001600081525090565b828054600181600116156101000203166002900490600052602060002090601f016020900481019282601f1061121d57805160ff191683800117855561124b565b8280016001018555821561124b579182015b8281111561124a57825182559160200191906001019061122f565b5b509050611258919061125c565b5090565b61127e91905b8082111561127a576000816000905550600101611262565b5090565b905600a165627a7a723058203bf4f853078a6af41ee8a1773fa81fd12518b20638e12a70af1405acd6ca889b0029",
  "source": "//solium-disable linebreak-style\r\n//solium-disable max-len\r\n\r\npragma solidity ^0.4.4;\r\n\r\ncontract ShareTicket{\r\n\r\n    struct TicketUser{\r\n        address TicketUserCurrentUser;\t\t\r\n        uint TicketUserTimestampRecived;\r\n        uint TicketUserTimestampPassed;\r\n        uint GeoLocationLatRecived;\r\n        uint GeoLocationLongRecived;    \r\n        uint GeoLocationLatPassed;\r\n        uint GeoLocationLongPassed;    \r\n    }\r\n\r\n    struct Ticket{\t\r\n        address TicketOwner;\t\r\n        string TicketName;\r\n        uint TicketTimeStampSarting;\r\n        uint TicketTimestampEnding;\r\n        uint TicketTimeStampReturn;\r\n        mapping (uint => TicketUser) TicketUsers;\r\n        uint TickertUserCount;\r\n    }\r\n\r\n    mapping (uint => Ticket) m_Tickets;  \r\n    uint[] m_TicketIds; \r\n    uint m_TickertCount;\r\n\t\r\n    constructor() public{        \r\n        \r\n        //remove * comment for dummy data\r\n        /* \r\n        // cretat dummy entrys for intial data\r\n        AddNewTicket(0xce67e2ab70671e5d0b8499c07e2e6cdb6f75ed12,\"KVV Karte 2 Waben Monat\",1538388654,1540980654,1540548654);\r\n        AddNewTicket(0x1ab79ce0e17faa271990179e85706bf5b2597a16,\"RVF RegioKarte Monat\",1538388654,1540980654,1539598254);\r\n        */\r\n    }\r\n\r\n    function AddNewTicket(address TicketOwner, string TicketName, uint TicketTimeStampSarting, uint TicketTimestampEnding,uint TicketTimeStampReturn) public{\r\n          \r\n        // init new ticket\r\n        Ticket memory newTicket;\r\n\r\n        newTicket.TicketOwner = TicketOwner;\r\n        newTicket.TicketName = TicketName;\r\n        newTicket.TicketTimeStampSarting = TicketTimeStampSarting;\r\n        newTicket.TicketTimestampEnding = TicketTimestampEnding;\r\n        newTicket.TicketTimeStampReturn = TicketTimeStampReturn;\r\n\r\n        // Store new ticket       \r\n        m_TicketIds.push(m_TickertCount);\r\n        m_Tickets[m_TickertCount] = newTicket;\r\n        m_TickertCount++;\r\n    }\r\n\r\n    function PassOnTicket(uint TicketId, address TicketUserCurrentUser, uint TicketUserTimestampPassed, uint GeoLocationLatPassed, uint GeoLocationLongPassed) public{   \r\n\r\n        if(m_Tickets[TicketId].TicketOwner == address(0))\r\n        {\r\n            revert(\"no Ticket was added\");\r\n        }\r\n\r\n        TicketUser memory newTicketUser;\r\n        \r\n        // billing current ticket user\r\n        if(m_Tickets[TicketId].TickertUserCount > 0)\r\n        {\r\n            m_Tickets[TicketId].TicketUsers[m_Tickets[TicketId].TickertUserCount-1].TicketUserTimestampPassed = TicketUserTimestampPassed;\r\n            m_Tickets[TicketId].TicketUsers[m_Tickets[TicketId].TickertUserCount-1].GeoLocationLatPassed = GeoLocationLatPassed;\r\n            m_Tickets[TicketId].TicketUsers[m_Tickets[TicketId].TickertUserCount-1].GeoLocationLongPassed = GeoLocationLongPassed;\r\n\r\n            // add billing\r\n        }\r\n\r\n        // check if owner got it back\r\n        if(m_Tickets[TicketId].TicketOwner == TicketUserCurrentUser)\r\n        {\r\n            // add destruct code\r\n\r\n            return;\r\n        }\r\n\r\n        // pass on ticket\r\n        newTicketUser.TicketUserCurrentUser = TicketUserCurrentUser;\r\n        newTicketUser.TicketUserTimestampRecived = TicketUserTimestampPassed;\r\n        newTicketUser.GeoLocationLatRecived = GeoLocationLatPassed;\r\n        newTicketUser.GeoLocationLongRecived = GeoLocationLongPassed;  \r\n\r\n        // store new user        \r\n        m_Tickets[TicketId].TicketUsers[m_Tickets[TicketId].TickertUserCount] = newTicketUser;     \r\n        m_Tickets[TicketId].TickertUserCount++;\r\n    }\r\n\r\n    function GetTicketOwner(uint TicketId) public view returns(address){\r\n\r\n        if(m_Tickets[TicketId].TicketOwner == address(0))\r\n        {\r\n            revert(\"no Ticket was added\");\r\n        }\r\n\r\n        return m_Tickets[TicketId].TicketOwner;\r\n    }\r\n\r\n    function GetTicketName(uint TicketId) public view returns(string){\r\n\r\n        if(m_Tickets[TicketId].TicketOwner == address(0))\r\n        {\r\n            revert(\"no Ticket was added\");\r\n        }\r\n\r\n        return m_Tickets[TicketId].TicketName;\r\n    }\r\n\r\n    function GetTicketDatesOfValidity(uint TicketId) public view returns(uint,uint){\r\n\r\n        if(m_Tickets[TicketId].TicketOwner == address(0))\r\n        {\r\n            revert(\"no Ticket was added\");\r\n        }\r\n\r\n        return (m_Tickets[TicketId].TicketTimeStampSarting,m_Tickets[TicketId].TicketTimeStampSarting);\r\n    }\r\n\r\n    function GetTicketDateOfReturn(uint TicketId) public view returns(uint){\r\n\r\n        if(m_Tickets[TicketId].TicketOwner == address(0))\r\n        {\r\n            revert(\"no Ticket was added\");\r\n        }\r\n\r\n        return (m_Tickets[TicketId].TicketTimeStampReturn);\r\n    }\r\n\r\n    function GetTicketCurrentUser(uint TicketId) public view returns(address){\r\n\r\n        if(m_Tickets[TicketId].TicketOwner == address(0))\r\n        {\r\n            revert(\"no Ticket was added\");\r\n        }\r\n\r\n        if(m_Tickets[TicketId].TickertUserCount == 0)\r\n        {\r\n            revert(\"no Ticket user\");\r\n        }\r\n\r\n        return m_Tickets[TicketId].TicketUsers[m_Tickets[TicketId].TickertUserCount-1].TicketUserCurrentUser;\r\n    }\r\n\r\n    function GetTicketLastGeoLocation(uint TicketId) public view returns(uint,uint){\r\n\r\n        if(m_Tickets[TicketId].TicketOwner == address(0))\r\n        {\r\n            revert(\"no Ticket was added\");\r\n        }\r\n\r\n        if(m_Tickets[TicketId].TickertUserCount == 0)\r\n        {\r\n            revert(\"no Ticket user\");\r\n        }\r\n\r\n        return (m_Tickets[TicketId].TicketUsers[m_Tickets[TicketId].TickertUserCount-1].GeoLocationLatRecived, m_Tickets[TicketId].TicketUsers[m_Tickets[TicketId].TickertUserCount-1].GeoLocationLongRecived);\r\n    }\r\n        \r\n\t\r\n\r\n}",
  "sourcePath": "C:\\Users\\spadmin\\Desktop\\hackathon2018\\BlackForestHackathon_2018\\ShareTicketWithWebApp\\contracts\\ShareTicket.sol",
  "compiler": {
    "name": "solc",
    "version": "0.4.24+commit.e67f0147.Emscripten.clang"
  },
  "schemaVersion": "2.0.1",
  "updatedAt": "2018-10-12T10:30:43.662Z"
}