{
  "contractName": "ProductsBlob",
  "abi": [
    {
      "inputs": [],
      "payable": false,
      "stateMutability": "nonpayable",
      "type": "constructor"
    },
    {
      "constant": false,
      "inputs": [
        {
          "name": "owner",
          "type": "address"
        },
        {
          "name": "productName",
          "type": "string"
        }
      ],
      "name": "AddProduct",
      "outputs": [],
      "payable": false,
      "stateMutability": "nonpayable",
      "type": "function"
    },
    {
      "constant": false,
      "inputs": [
        {
          "name": "productPos",
          "type": "uint256"
        },
        {
          "name": "startTime",
          "type": "string"
        },
        {
          "name": "endTime",
          "type": "string"
        },
        {
          "name": "pricePerDay",
          "type": "uint256"
        }
      ],
      "name": "AddOffer",
      "outputs": [],
      "payable": false,
      "stateMutability": "nonpayable",
      "type": "function"
    },
    {
      "constant": false,
      "inputs": [
        {
          "name": "offerPos",
          "type": "uint256"
        },
        {
          "name": "startTime",
          "type": "string"
        },
        {
          "name": "endTime",
          "type": "string"
        },
        {
          "name": "user",
          "type": "address"
        },
        {
          "name": "loanStatus",
          "type": "uint8"
        }
      ],
      "name": "AddLoan",
      "outputs": [],
      "payable": false,
      "stateMutability": "nonpayable",
      "type": "function"
    },
    {
      "constant": true,
      "inputs": [
        {
          "name": "posOffer",
          "type": "uint256"
        }
      ],
      "name": "GetOfferBy",
      "outputs": [
        {
          "name": "",
          "type": "uint256"
        },
        {
          "name": "",
          "type": "uint256"
        },
        {
          "name": "",
          "type": "address"
        },
        {
          "name": "",
          "type": "string"
        },
        {
          "name": "",
          "type": "string"
        },
        {
          "name": "",
          "type": "string"
        }
      ],
      "payable": false,
      "stateMutability": "view",
      "type": "function"
    },
    {
      "constant": true,
      "inputs": [
        {
          "name": "posProduct",
          "type": "uint256"
        }
      ],
      "name": "GetProductBy",
      "outputs": [
        {
          "name": "",
          "type": "uint256"
        },
        {
          "name": "",
          "type": "string"
        },
        {
          "name": "",
          "type": "address"
        }
      ],
      "payable": false,
      "stateMutability": "view",
      "type": "function"
    },
    {
      "constant": false,
      "inputs": [
        {
          "name": "offerId",
          "type": "uint256"
        },
        {
          "name": "startTime",
          "type": "string"
        },
        {
          "name": "endTime",
          "type": "string"
        }
      ],
      "name": "Reserve",
      "outputs": [],
      "payable": false,
      "stateMutability": "nonpayable",
      "type": "function"
    },
    {
      "constant": false,
      "inputs": [
        {
          "name": "offerId",
          "type": "uint256"
        },
        {
          "name": "startTime",
          "type": "string"
        },
        {
          "name": "endTime",
          "type": "string"
        }
      ],
      "name": "PassOn",
      "outputs": [],
      "payable": false,
      "stateMutability": "nonpayable",
      "type": "function"
    },
    {
      "constant": true,
      "inputs": [
        {
          "name": "loanId",
          "type": "uint256"
        }
      ],
      "name": "GetLoanBy",
      "outputs": [
        {
          "name": "",
          "type": "string"
        },
        {
          "name": "",
          "type": "string"
        },
        {
          "name": "",
          "type": "address"
        },
        {
          "name": "",
          "type": "uint8"
        }
      ],
      "payable": false,
      "stateMutability": "view",
      "type": "function"
    },
    {
      "constant": true,
      "inputs": [
        {
          "name": "offerId",
          "type": "uint256"
        },
        {
          "name": "startTime",
          "type": "string"
        },
        {
          "name": "endTime",
          "type": "string"
        }
      ],
      "name": "GetLoanBy",
      "outputs": [
        {
          "name": "",
          "type": "uint256"
        }
      ],
      "payable": false,
      "stateMutability": "view",
      "type": "function"
    },
    {
      "constant": true,
      "inputs": [
        {
          "name": "offerId",
          "type": "uint256"
        },
        {
          "name": "startTime",
          "type": "string"
        },
        {
          "name": "endTime",
          "type": "string"
        }
      ],
      "name": "ExistLoanBy",
      "outputs": [
        {
          "name": "",
          "type": "bool"
        }
      ],
      "payable": false,
      "stateMutability": "view",
      "type": "function"
    },
    {
      "constant": true,
      "inputs": [],
      "name": "GetOfferCount",
      "outputs": [
        {
          "name": "",
          "type": "uint256"
        }
      ],
      "payable": false,
      "stateMutability": "view",
      "type": "function"
    },
    {
      "constant": true,
      "inputs": [],
      "name": "GetProductCount",
      "outputs": [
        {
          "name": "",
          "type": "uint256"
        }
      ],
      "payable": false,
      "stateMutability": "view",
      "type": "function"
    },
    {
      "constant": true,
      "inputs": [],
      "name": "GetLoanCount",
      "outputs": [
        {
          "name": "",
          "type": "uint256"
        }
      ],
      "payable": false,
      "stateMutability": "view",
      "type": "function"
    },
    {
      "constant": true,
      "inputs": [
        {
          "name": "a",
          "type": "string"
        },
        {
          "name": "b",
          "type": "string"
        }
      ],
      "name": "compareStrings",
      "outputs": [
        {
          "name": "",
          "type": "bool"
        }
      ],
      "payable": false,
      "stateMutability": "view",
      "type": "function"
    }
  ],
  "bytecode": "0x60806040523480156200001157600080fd5b506200007673abd49c5238abbf0b5f07ce6f357f3b871d33f0456040805190810160405280600a81526020017f526567696f4b617274650000000000000000000000000000000000000000000081525062000456640100000000026401000000009004565b620000da73caaf3b8e02a42111530f2b23d566b50a43df05ab6040805190810160405280600c81526020017f426f68726d61736368696e65000000000000000000000000000000000000000081525062000456640100000000026401000000009004565b6200013e73ae7f8dce41c4cbff215b46f3b01004114037113e6040805190810160405280600781526020017f44616368626f780000000000000000000000000000000000000000000000000081525062000456640100000000026401000000009004565b620001a2736134b21e2f52d93a53f4595ed20a345f2644091d6040805190810160405280600881526020017f466c75677a65756700000000000000000000000000000000000000000000000081525062000456640100000000026401000000009004565b6200022b60006040805190810160405280600981526020017f362e31302e3230313800000000000000000000000000000000000000000000008152506040805190810160405280600981526020017f372e31302e323031380000000000000000000000000000000000000000000000815250600862000545640100000000026401000000009004565b620002b460006040805190810160405280600a81526020017f32302e31302e32303138000000000000000000000000000000000000000000008152506040805190810160405280600a81526020017f32312e31302e3230313800000000000000000000000000000000000000000000815250600862000545640100000000026401000000009004565b6200033d60016040805190810160405280600981526020017f312e31302e3230313800000000000000000000000000000000000000000000008152506040805190810160405280600881526020017f312e312e32303139000000000000000000000000000000000000000000000000815250600a62000545640100000000026401000000009004565b620003c660026040805190810160405280600981526020017f312e31302e3230313800000000000000000000000000000000000000000000008152506040805190810160405280600a81526020017f32392e30342e3230313900000000000000000000000000000000000000000000815250600762000545640100000000026401000000009004565b6200045060036040805190810160405280600981526020017f332e31302e3230313800000000000000000000000000000000000000000000008152506040805190810160405280600a81526020017f31322e31302e32303138000000000000000000000000000000000000000000008152506107d062000545640100000000026401000000009004565b62000720565b6200046062000609565b81816020018190525082816040019073ffffffffffffffffffffffffffffffffffffffff16908173ffffffffffffffffffffffffffffffffffffffff1681525050600154816000018181525050806000806001548152602001908152602001600020600082015181600001556020820151816001019080519060200190620004ea92919062000641565b5060408201518160020160006101000a81548173ffffffffffffffffffffffffffffffffffffffff021916908373ffffffffffffffffffffffffffffffffffffffff1602179055509050506001805401600181905550505050565b6200054f620006c8565b83816040018190525082816060018190525081816080018181525050848160000181815250506003548160200181815250508060026000600354815260200190815260200160002060008201518160000155602082015181600101556040820151816002019080519060200190620005c992919062000641565b506060820151816003019080519060200190620005e892919062000641565b50608082015181600401559050506001600354016003819055505050505050565b6060604051908101604052806000815260200160608152602001600073ffffffffffffffffffffffffffffffffffffffff1681525090565b828054600181600116156101000203166002900490600052602060002090601f016020900481019282601f106200068457805160ff1916838001178555620006b5565b82800160010185558215620006b5579182015b82811115620006b457825182559160200191906001019062000697565b5b509050620006c49190620006f8565b5090565b60a06040519081016040528060008152602001600081526020016060815260200160608152602001600081525090565b6200071d91905b8082111562000719576000816000905550600101620006ff565b5090565b90565b611f2880620007306000396000f3006080604052600436106100d0576000357c0100000000000000000000000000000000000000000000000000000000900463ffffffff168063297f607a146100d55780634698aa92146101a2578063663f6754146102fc57806388ee3d4e146103cd57806393b997e9146104ad5780639db86774146104d8578063b711855114610591578063bed34bba1461061a578063c09f61fa146106e1578063cb267399146107a4578063d11480131461085d578063dbee9d8414610943578063dcc618ed1461096e578063de78b69214610999575b600080fd5b3480156100e157600080fd5b5061018c60048036038101908080359060200190929190803590602001908201803590602001908080601f0160208091040260200160405190810160405280939291908181526020018383808284378201915050505050509192919290803590602001908201803590602001908080601f0160208091040260200160405190810160405280939291908181526020018383808284378201915050505050509192919290505050610b58565b6040518082815260200191505060405180910390f35b3480156101ae57600080fd5b506101cd60048036038101908080359060200190929190505050610d0b565b6040518080602001806020018573ffffffffffffffffffffffffffffffffffffffff1673ffffffffffffffffffffffffffffffffffffffff16815260200184600481111561021757fe5b60ff168152602001838103835287818151815260200191508051906020019080838360005b8381101561025757808201518184015260208101905061023c565b50505050905090810190601f1680156102845780820380516001836020036101000a031916815260200191505b50838103825286818151815260200191508051906020019080838360005b838110156102bd5780820151818401526020810190506102a2565b50505050905090810190601f1680156102ea5780820380516001836020036101000a031916815260200191505b50965050505050505060405180910390f35b34801561030857600080fd5b506103b360048036038101908080359060200190929190803590602001908201803590602001908080601f0160208091040260200160405190810160405280939291908181526020018383808284378201915050505050509192919290803590602001908201803590602001908080601f0160208091040260200160405190810160405280939291908181526020018383808284378201915050505050509192919290505050610f3f565b604051808215151515815260200191505060405180910390f35b3480156103d957600080fd5b506103f8600480360381019080803590602001909291905050506111a8565b60405180848152602001806020018373ffffffffffffffffffffffffffffffffffffffff1673ffffffffffffffffffffffffffffffffffffffff168152602001828103825284818151815260200191508051906020019080838360005b83811015610470578082015181840152602081019050610455565b50505050905090810190601f16801561049d5780820380516001836020036101000a031916815260200191505b5094505050505060405180910390f35b3480156104b957600080fd5b506104c26112f8565b6040518082815260200191505060405180910390f35b3480156104e457600080fd5b5061058f60048036038101908080359060200190929190803590602001908201803590602001908080601f0160208091040260200160405190810160405280939291908181526020018383808284378201915050505050509192919290803590602001908201803590602001908080601f0160208091040260200160405190810160405280939291908181526020018383808284378201915050505050509192919290505050611302565b005b34801561059d57600080fd5b50610618600480360381019080803573ffffffffffffffffffffffffffffffffffffffff169060200190929190803590602001908201803590602001908080601f0160208091040260200160405190810160405280939291908181526020018383808284378201915050505050509192919290505050611315565b005b34801561062657600080fd5b506106c7600480360381019080803590602001908201803590602001908080601f0160208091040260200160405190810160405280939291908181526020018383808284378201915050505050509192919290803590602001908201803590602001908080601f0160208091040260200160405190810160405280939291908181526020018383808284378201915050505050509192919290505050611400565b604051808215151515815260200191505060405180910390f35b3480156106ed57600080fd5b506107a260048036038101908080359060200190929190803590602001908201803590602001908080601f0160208091040260200160405190810160405280939291908181526020018383808284378201915050505050509192919290803590602001908201803590602001908080601f0160208091040260200160405190810160405280939291908181526020018383808284378201915050505050509192919290803590602001909291905050506114d9565b005b3480156107b057600080fd5b5061085b60048036038101908080359060200190929190803590602001908201803590602001908080601f0160208091040260200160405190810160405280939291908181526020018383808284378201915050505050509192919290803590602001908201803590602001908080601f0160208091040260200160405190810160405280939291908181526020018383808284378201915050505050509192919290505050611597565b005b34801561086957600080fd5b5061094160048036038101908080359060200190929190803590602001908201803590602001908080601f0160208091040260200160405190810160405280939291908181526020018383808284378201915050505050509192919290803590602001908201803590602001908080601f0160208091040260200160405190810160405280939291908181526020018383808284378201915050505050509192919290803573ffffffffffffffffffffffffffffffffffffffff169060200190929190803560ff16906020019092919050505061190d565b005b34801561094f57600080fd5b50610958611a82565b6040518082815260200191505060405180910390f35b34801561097a57600080fd5b50610983611a8c565b6040518082815260200191505060405180910390f35b3480156109a557600080fd5b506109c460048036038101908080359060200190929190505050611a96565b604051808781526020018681526020018573ffffffffffffffffffffffffffffffffffffffff1673ffffffffffffffffffffffffffffffffffffffff168152602001806020018060200180602001848103845287818151815260200191508051906020019080838360005b83811015610a4a578082015181840152602081019050610a2f565b50505050905090810190601f168015610a775780820380516001836020036101000a031916815260200191505b50848103835286818151815260200191508051906020019080838360005b83811015610ab0578082015181840152602081019050610a95565b50505050905090810190601f168015610add5780820380516001836020036101000a031916815260200191505b50848103825285818151815260200191508051906020019080838360005b83811015610b16578082015181840152602081019050610afb565b50505050905090810190601f168015610b435780820380516001836020036101000a031916815260200191505b50995050505050505050505060405180910390f35b60008060008091505b600554821015610d0157600460008381526020019081526020016000209050858160000154148015610c355750610c34816002018054600181600116156101000203166002900480601f016020809104026020016040519081016040528092919081815260200182805460018160011615610100020316600290048015610c295780601f10610bfe57610100808354040283529160200191610c29565b820191906000526020600020905b815481529060010190602001808311610c0c57829003601f168201915b505050505086611400565b5b8015610ce35750610ce2816003018054600181600116156101000203166002900480601f016020809104026020016040519081016040528092919081815260200182805460018160011615610100020316600290048015610cd75780601f10610cac57610100808354040283529160200191610cd7565b820191906000526020600020905b815481529060010190602001808311610cba57829003601f168201915b505050505085611400565b5b15610cf45780600101549250610d02565b8180600101925050610b61565b5b50509392505050565b606080600080610d19611d97565b6004600087815260200190815260200160002060c060405190810160405290816000820154815260200160018201548152602001600282018054600181600116156101000203166002900480601f016020809104026020016040519081016040528092919081815260200182805460018160011615610100020316600290048015610de55780601f10610dba57610100808354040283529160200191610de5565b820191906000526020600020905b815481529060010190602001808311610dc857829003601f168201915b50505050508152602001600382018054600181600116156101000203166002900480601f016020809104026020016040519081016040528092919081815260200182805460018160011615610100020316600290048015610e875780601f10610e5c57610100808354040283529160200191610e87565b820191906000526020600020905b815481529060010190602001808311610e6a57829003601f168201915b505050505081526020016004820160009054906101000a900473ffffffffffffffffffffffffffffffffffffffff1673ffffffffffffffffffffffffffffffffffffffff1673ffffffffffffffffffffffffffffffffffffffff1681526020016004820160149054906101000a900460ff166004811115610f0457fe5b6004811115610f0f57fe5b8152505090508060400151816060015182608001518360a001518393508292509450945094509450509193509193565b600080610f4a611d97565b6000915060055482101561119e576004600083815260200190815260200160002060c060405190810160405290816000820154815260200160018201548152602001600282018054600181600116156101000203166002900480601f0160208091040260200160405190810160405280929190818152602001828054600181600116156101000203166002900480156110245780601f10610ff957610100808354040283529160200191611024565b820191906000526020600020905b81548152906001019060200180831161100757829003601f168201915b50505050508152602001600382018054600181600116156101000203166002900480601f0160208091040260200160405190810160405280929190818152602001828054600181600116156101000203166002900480156110c65780601f1061109b576101008083540402835291602001916110c6565b820191906000526020600020905b8154815290600101906020018083116110a957829003601f168201915b505050505081526020016004820160009054906101000a900473ffffffffffffffffffffffffffffffffffffffff1673ffffffffffffffffffffffffffffffffffffffff1673ffffffffffffffffffffffffffffffffffffffff1681526020016004820160149054906101000a900460ff16600481111561114357fe5b600481111561114e57fe5b8152505090508581600001511480156111715750611170816040015186611400565b5b80156111875750611186816060015185611400565b5b15611195576001925061119f565b6000925061119f565b5b50509392505050565b6000606060006111b6611def565b6000808681526020019081526020016000206060604051908101604052908160008201548152602001600182018054600181600116156101000203166002900480601f0160208091040260200160405190810160405280929190818152602001828054600181600116156101000203166002900480156112775780601f1061124c57610100808354040283529160200191611277565b820191906000526020600020905b81548152906001019060200180831161125a57829003601f168201915b505050505081526020016002820160009054906101000a900473ffffffffffffffffffffffffffffffffffffffff1673ffffffffffffffffffffffffffffffffffffffff1673ffffffffffffffffffffffffffffffffffffffff16815250509050806000015181602001518260400151819150935093509350509193909250565b6000600154905090565b61131083838333600061190d565b505050565b61131d611def565b81816020018190525082816040019073ffffffffffffffffffffffffffffffffffffffff16908173ffffffffffffffffffffffffffffffffffffffff16815250506001548160000181815250508060008060015481526020019081526020016000206000820151816000015560208201518160010190805190602001906113a5929190611e27565b5060408201518160020160006101000a81548173ffffffffffffffffffffffffffffffffffffffff021916908373ffffffffffffffffffffffffffffffffffffffff1602179055509050506001805401600181905550505050565b6000816040518082805190602001908083835b6020831015156114385780518252602082019150602081019050602083039250611413565b6001836020036101000a038019825116818451168082178552505050505050905001915050604051809103902060001916836040518082805190602001908083835b60208310151561149f578051825260208201915060208101905060208303925061147a565b6001836020036101000a03801982511681845116808217855250505050505090500191505060405180910390206000191614905092915050565b6114e1611ea7565b83816040018190525082816060018190525081816080018181525050848160000181815250506003548160200181815250508060026000600354815260200190815260200160002060008201518160000155602082015181600101556040820151816002019080519060200190611559929190611e27565b506060820151816003019080519060200190611576929190611e27565b50608082015181600401559050506001600354016003819055505050505050565b6000806000806115a8878787610f3f565b93506115b5878787610b58565b92506004600084815260200190815260200160002091508315156000151514156115de57611904565b8160040160149054906101000a900460ff169050600060048111156115ff57fe5b81600481111561160b57fe5b141561167f5760018260040160146101000a81548160ff0219169083600481111561163257fe5b0217905550338260040160006101000a81548173ffffffffffffffffffffffffffffffffffffffff021916908373ffffffffffffffffffffffffffffffffffffffff160217905550611903565b6001600481111561168c57fe5b81600481111561169857fe5b14801561173f5750600080600260008a815260200190815260200160002060000154815260200190815260200160002060020160009054906101000a900473ffffffffffffffffffffffffffffffffffffffff1673ffffffffffffffffffffffffffffffffffffffff168260040160009054906101000a900473ffffffffffffffffffffffffffffffffffffffff1673ffffffffffffffffffffffffffffffffffffffff16145b156117b25760028260040160146101000a81548160ff0219169083600481111561176557fe5b0217905550338260040160006101000a81548173ffffffffffffffffffffffffffffffffffffffff021916908373ffffffffffffffffffffffffffffffffffffffff160217905550611902565b600160048111156117bf57fe5b8160048111156117cb57fe5b1480156118725750600080600260008a815260200190815260200160002060000154815260200190815260200160002060020160009054906101000a900473ffffffffffffffffffffffffffffffffffffffff1673ffffffffffffffffffffffffffffffffffffffff168260040160009054906101000a900473ffffffffffffffffffffffffffffffffffffffff1673ffffffffffffffffffffffffffffffffffffffff16145b156118e55760028260040160146101000a81548160ff0219169083600481111561189857fe5b0217905550338260040160006101000a81548173ffffffffffffffffffffffffffffffffffffffff021916908373ffffffffffffffffffffffffffffffffffffffff160217905550611901565b600060048111156118f257fe5b8160048111156118fe57fe5b50505b5b5b5b50505050505050565b611915611d97565b84816040018190525083816060018190525082816080019073ffffffffffffffffffffffffffffffffffffffff16908173ffffffffffffffffffffffffffffffffffffffff168152505085816000018181525050600554816020018181525050818160a00190600481111561198657fe5b9081600481111561199357fe5b8152505080600460006005548152602001908152602001600020600082015181600001556020820151816001015560408201518160020190805190602001906119dd929190611e27565b5060608201518160030190805190602001906119fa929190611e27565b5060808201518160040160006101000a81548173ffffffffffffffffffffffffffffffffffffffff021916908373ffffffffffffffffffffffffffffffffffffffff16021790555060a08201518160040160146101000a81548160ff02191690836004811115611a6657fe5b0217905550905050600160055401600581905550505050505050565b6000600354905090565b6000600554905090565b60008060006060806060611aa8611ea7565b611ab0611def565b600260008a815260200190815260200160002060a060405190810160405290816000820154815260200160018201548152602001600282018054600181600116156101000203166002900480601f016020809104026020016040519081016040528092919081815260200182805460018160011615610100020316600290048015611b7c5780601f10611b5157610100808354040283529160200191611b7c565b820191906000526020600020905b815481529060010190602001808311611b5f57829003601f168201915b50505050508152602001600382018054600181600116156101000203166002900480601f016020809104026020016040519081016040528092919081815260200182805460018160011615610100020316600290048015611c1e5780601f10611bf357610100808354040283529160200191611c1e565b820191906000526020600020905b815481529060010190602001808311611c0157829003601f168201915b505050505081526020016004820154815250509150600080836000015181526020019081526020016000206060604051908101604052908160008201548152602001600182018054600181600116156101000203166002900480601f016020809104026020016040519081016040528092919081815260200182805460018160011615610100020316600290048015611cf85780601f10611ccd57610100808354040283529160200191611cf8565b820191906000526020600020905b815481529060010190602001808311611cdb57829003601f168201915b505050505081526020016002820160009054906101000a900473ffffffffffffffffffffffffffffffffffffffff1673ffffffffffffffffffffffffffffffffffffffff1673ffffffffffffffffffffffffffffffffffffffff16815250509050816000015182602001518260400151836020015185604001518660600151829250819150809050975097509750975097509750505091939550919395565b60c06040519081016040528060008152602001600081526020016060815260200160608152602001600073ffffffffffffffffffffffffffffffffffffffff16815260200160006004811115611de957fe5b81525090565b6060604051908101604052806000815260200160608152602001600073ffffffffffffffffffffffffffffffffffffffff1681525090565b828054600181600116156101000203166002900490600052602060002090601f016020900481019282601f10611e6857805160ff1916838001178555611e96565b82800160010185558215611e96579182015b82811115611e95578251825591602001919060010190611e7a565b5b509050611ea39190611ed7565b5090565b60a06040519081016040528060008152602001600081526020016060815260200160608152602001600081525090565b611ef991905b80821115611ef5576000816000905550600101611edd565b5090565b905600a165627a7a7230582075d0024267e49d489c9ce335434c5ef95c6ebc6e03c7ddd446db7549fd0a0d320029",
  "source": "//solium-disable linebreak-style\r\n//solium-disable max-len\r\n\r\n//pragma experimental ABIEncoderV2;\r\npragma solidity ^0.4.4;\r\n\r\ncontract ProductsBlob{\r\n\r\n    enum LoanStatus {  Booked, Lent, Returned, PassedOn, Failed }\r\n\r\n    constructor() public\r\n    {  \r\n        AddProduct(0xabd49c5238abbf0b5f07ce6f357f3b871d33f045,\"RegioKarte\");\r\n        AddProduct(0xcaaf3b8e02a42111530f2b23d566b50a43df05ab,\"Bohrmaschine\");     \r\n        AddProduct(0xae7f8dce41c4cbff215b46f3b01004114037113e,\"Dachbox\");\r\n        AddProduct(0x6134b21e2f52d93a53f4595ed20a345f2644091d,\"Flugzeug\");   \r\n  \r\n        AddOffer(0,\"6.10.2018\",\"7.10.2018\",8);\r\n        AddOffer(0,\"20.10.2018\",\"21.10.2018\",8);\r\n        AddOffer(1,\"1.10.2018\",\"1.1.2019\",10);\r\n        AddOffer(2,\"1.10.2018\",\"29.04.2019\",7);\r\n        AddOffer(3,\"3.10.2018\",\"12.10.2018\",2000);\r\n    }    \r\n\r\n    struct Loan{\r\n        //uint ProductId;\r\n        uint OfferId;\r\n        uint LoanId;\r\n        string Start;\r\n        string End;\r\n        address User; \r\n        LoanStatus Status;  \r\n    }\r\n\r\n    struct Offer{\r\n        uint ProductId; \r\n        uint OfferId; \r\n        string Start;\r\n        string End;\r\n        uint PricePerDay; \r\n    }\r\n\r\n    struct Product{\r\n        uint  ProductId; \r\n        string ProductName;\r\n        address Owner;                \r\n    }    \r\n\r\n    mapping (uint => Product) Products;  \r\n    uint ProductsCount;\r\n\r\n    mapping(uint =>Offer) Offers;\r\n    uint OffersCount;  \r\n\r\n    mapping(uint =>Loan) Loans;\r\n    uint LoansCount;\r\n\r\n    function AddProduct(address owner,string productName) public\r\n    {\r\n        Product memory newProduct;\r\n        newProduct.ProductName = productName;\r\n        newProduct.Owner = owner;\r\n        newProduct.ProductId = ProductsCount;\r\n\r\n        Products[ProductsCount] = newProduct;\r\n        ProductsCount = ProductsCount + 1;\r\n    }\r\n\r\n    function AddOffer(uint productPos, string startTime, string endTime, uint pricePerDay  ) public\r\n    {\r\n        Offer memory newOffer;\r\n        newOffer.Start = startTime;\r\n        newOffer.End = endTime;\r\n        newOffer.PricePerDay = pricePerDay;   \r\n        newOffer.ProductId = productPos;\r\n        newOffer.OfferId = OffersCount;\r\n\r\n        Offers[OffersCount] = newOffer;\r\n        OffersCount = OffersCount + 1;\r\n    }\r\n\r\n    function AddLoan( uint offerPos, string startTime, string endTime, address user, LoanStatus loanStatus) public\r\n    {        \r\n        Loan memory newLoan;\r\n        newLoan.Start = startTime;\r\n        newLoan.End = endTime;\r\n        newLoan.User = user;   \r\n        newLoan.OfferId = offerPos;\r\n        newLoan.LoanId = LoansCount;    \r\n        newLoan.Status = loanStatus;   \r\n        \r\n        Loans[LoansCount] = newLoan;\r\n        LoansCount = LoansCount + 1;\r\n    }\r\n\r\n    function GetOfferBy(uint posOffer) public view returns (uint, uint, address, string, string, string){    \r\n        Offer memory o = Offers[posOffer];\r\n        Product memory p = Products[o.ProductId];\r\n\r\n        return (o.ProductId, o.OfferId, p.Owner, p.ProductName, o.Start, o.End);\r\n    }\r\n\r\n    \r\n    function GetProductBy(uint posProduct) public view returns (uint, string, address){    \r\n        Product memory p = Products[posProduct];\r\n        return (p.ProductId, p.ProductName,p.Owner);\r\n    }\r\n\r\n    function GetLoanBy(uint loanId) public view returns (string, string, address, LoanStatus){    \r\n        Loan memory l = Loans[loanId];\r\n        return (l.Start,l.End,l.User,l.Status);\r\n    }\r\n\r\n    function Reserve(uint offerId, string startTime, string endTime) public\r\n    {\r\n        // todo check times wrong add / check it outside?\r\n        AddLoan(offerId, startTime, endTime, msg.sender, LoanStatus.Booked);   \r\n    }\r\n\r\n    function PassOn(uint offerId, string startTime, string endTime) public  //secret als param; User auslesen\r\n    {  \r\n        bool LoanExists = ExistLoanBy(offerId, startTime, endTime);\r\n      \r\n        uint loanId = GetLoanBy(offerId, startTime, endTime);\r\n        Loan storage _loan = Loans[loanId];\r\n\r\n        if(false == LoanExists)\r\n        {\r\n            return;  \r\n        }\r\n\r\n        LoanStatus status = _loan.Status;\r\n        if(status == LoanStatus.Booked) // todo && LentedProductExists())\r\n        {\r\n            _loan.Status = LoanStatus.Lent;\r\n            _loan.User = msg.sender;\r\n        }\r\n        else if(status == LoanStatus.Lent && _loan.User == Products[Offers[offerId].ProductId].Owner)\r\n        {\r\n            _loan.Status = LoanStatus.Returned;\r\n            _loan.User = msg.sender;\r\n        }\r\n        else if(status == LoanStatus.Lent && _loan.User == Products[Offers[offerId].ProductId].Owner)\r\n        {\r\n            _loan.Status = LoanStatus.Returned;\r\n            _loan.User = msg.sender;\r\n        }\r\n        else if(status == LoanStatus.Booked )\r\n        {\r\n        // Todo weiterer USer (nicht an Owner)\r\n        }     \r\n    }\r\n\r\n    function GetLoanBy(uint offerId, string startTime, string endTime) public view returns (uint)\r\n    {\r\n        for(uint i = 0; i < LoansCount; i++)\r\n        {\r\n            Loan storage l = Loans[i];\r\n            if(l.OfferId == offerId && compareStrings(l.Start,startTime) && compareStrings(l.End,endTime))\r\n            {\r\n               // return l;\r\n                return l.LoanId;\r\n            } \r\n        }\r\n    }\r\n\r\n    function ExistLoanBy(uint offerId, string startTime, string endTime) public view returns (bool)\r\n    {\r\n        for(uint i = 0; i < LoansCount; i++)\r\n        {\r\n            Loan memory l = Loans[i];\r\n            if(l.OfferId == offerId && compareStrings(l.Start,startTime) && compareStrings(l.End,endTime))\r\n            {\r\n                return true;\r\n            }\r\n            return false;\r\n        }\r\n    }\r\n\r\n    function GetOfferCount() public view returns (uint){\r\n        return OffersCount; \r\n    }\r\n    \r\n    function GetProductCount() public view returns (uint){\r\n        return ProductsCount; \r\n    }\r\n\r\n    function GetLoanCount() public view returns (uint){\r\n        return LoansCount; \r\n    }\r\n    \r\n    // todo: fix Remember: hash collisions are possible \r\n    function compareStrings (string a, string b) public view returns (bool)\r\n    {\r\n        return keccak256(a) == keccak256(b);\r\n    }\r\n}",
  "sourcePath": "C:\\Users\\sebih\\Documents\\BlackForestHackathon_2018\\BlackForestHackathon_Project\\BlackForestHackathon_2018\\angular\\contracts\\ProductsBlob.sol",
  "compiler": {
    "name": "solc",
    "version": "0.4.24+commit.e67f0147.Emscripten.clang"
  },
  "schemaVersion": "2.0.1",
  "updatedAt": "2018-10-14T09:19:20.227Z"
}